{
  "contractName": "PatientRegistry",
  "abi": [
    {
      "anonymous": false,
      "inputs": [
        {
          "indexed": true,
          "internalType": "uint256",
          "name": "patientId",
          "type": "uint256"
        },
        {
          "indexed": false,
          "internalType": "string",
          "name": "_name",
          "type": "string"
        },
        {
          "indexed": false,
          "internalType": "uint256",
          "name": "_age",
          "type": "uint256"
        },
        {
          "indexed": false,
          "internalType": "string",
          "name": "_dentalInfo",
          "type": "string"
        }
      ],
      "name": "PatientInfoUpdated",
      "type": "event"
    },
    {
      "anonymous": false,
      "inputs": [
        {
          "indexed": true,
          "internalType": "uint256",
          "name": "patientId",
          "type": "uint256"
        },
        {
          "indexed": false,
          "internalType": "string",
          "name": "name",
          "type": "string"
        }
      ],
      "name": "PatientRegistered",
      "type": "event"
    },
    {
      "inputs": [],
      "name": "patientCount",
      "outputs": [
        {
          "internalType": "uint256",
          "name": "",
          "type": "uint256"
        }
      ],
      "stateMutability": "view",
      "type": "function",
      "constant": true
    },
    {
      "inputs": [
        {
          "internalType": "uint256",
          "name": "",
          "type": "uint256"
        }
      ],
      "name": "patients",
      "outputs": [
        {
          "internalType": "string",
          "name": "name",
          "type": "string"
        },
        {
          "internalType": "uint256",
          "name": "age",
          "type": "uint256"
        },
        {
          "internalType": "string",
          "name": "dentalInfo",
          "type": "string"
        }
      ],
      "stateMutability": "view",
      "type": "function",
      "constant": true
    },
    {
      "inputs": [
        {
          "internalType": "string",
          "name": "_name",
          "type": "string"
        },
        {
          "internalType": "uint256",
          "name": "_age",
          "type": "uint256"
        },
        {
          "internalType": "string",
          "name": "_dentalInfo",
          "type": "string"
        }
      ],
      "name": "registerPatient",
      "outputs": [],
      "stateMutability": "nonpayable",
      "type": "function"
    },
    {
      "inputs": [
        {
          "internalType": "uint256",
          "name": "_patientId",
          "type": "uint256"
        }
      ],
      "name": "getPatient",
      "outputs": [
        {
          "internalType": "string",
          "name": "",
          "type": "string"
        },
        {
          "internalType": "uint256",
          "name": "",
          "type": "uint256"
        },
        {
          "internalType": "string",
          "name": "",
          "type": "string"
        }
      ],
      "stateMutability": "view",
      "type": "function",
      "constant": true
    },
    {
      "inputs": [],
      "name": "getAllPatients",
      "outputs": [
        {
          "internalType": "uint256[]",
          "name": "",
          "type": "uint256[]"
        }
      ],
      "stateMutability": "view",
      "type": "function",
      "constant": true
    },
    {
      "inputs": [
        {
          "internalType": "uint256",
          "name": "_patientId",
          "type": "uint256"
        },
        {
          "internalType": "string",
          "name": "_name",
          "type": "string"
        },
        {
          "internalType": "uint256",
          "name": "_age",
          "type": "uint256"
        },
        {
          "internalType": "string",
          "name": "_dentalInfo",
          "type": "string"
        }
      ],
      "name": "updatePatientInfo",
      "outputs": [],
      "stateMutability": "nonpayable",
      "type": "function"
    }
  ],
  "bytecode": "0x608060405234801561001057600080fd5b50610f5c806100206000396000f3fe608060405234801561001057600080fd5b50600436106100625760003560e01c806318a231a9146100675780631d14c36e146100855780634caac8ff146100a15780637d3a6796146100bd57806393119a83146100ef578063a0303c4114610121575b600080fd5b61006f61013f565b60405161007c9190610727565b60405180910390f35b61009f600480360381019061009a91906108cf565b6101d8565b005b6100bb60048036038101906100b6919061095a565b61029b565b005b6100d760048036038101906100d291906109f9565b610365565b6040516100e693929190610ab4565b60405180910390f35b610109600480360381019061010491906109f9565b61051f565b60405161011893929190610ab4565b60405180910390f35b610129610659565b6040516101369190610af9565b60405180910390f35b6060600060015467ffffffffffffffff81111561015f5761015e610778565b5b60405190808252806020026020018201604052801561018d5781602001602082028036833780820191505090505b50905060005b6001548110156101d057808282815181106101b1576101b0610b14565b5b60200260200101818152505080806101c890610b72565b915050610193565b508091505090565b60006001549050600160008154809291906101f290610b72565b919050555060405180606001604052808581526020018481526020018381525060008083815260200190815260200160002060008201518160000190816102399190610dc6565b506020820151816001015560408201518160020190816102599190610dc6565b50905050807f6c19f22d83a1ce20713b4c747e3a78c3036498ced71d283c697d587033783bd08560405161028d9190610e98565b60405180910390a250505050565b60015484106102df576040517f08c379a00000000000000000000000000000000000000000000000000000000081526004016102d690610f06565b60405180910390fd5b60008060008681526020019081526020016000209050838160000190816103069190610dc6565b50828160010181905550818160020190816103219190610dc6565b50847fed06262c114fb700d008441e73e7c7332cb90cf8988cc60b992085334cc2d7ad85858560405161035693929190610ab4565b60405180910390a25050505050565b606060006060600080600086815260200190815260200160002060405180606001604052908160008201805461039a90610be9565b80601f01602080910402602001604051908101604052809291908181526020018280546103c690610be9565b80156104135780601f106103e857610100808354040283529160200191610413565b820191906000526020600020905b8154815290600101906020018083116103f657829003601f168201915b505050505081526020016001820154815260200160028201805461043690610be9565b80601f016020809104026020016040519081016040528092919081815260200182805461046290610be9565b80156104af5780601f10610484576101008083540402835291602001916104af565b820191906000526020600020905b81548152906001019060200180831161049257829003601f168201915b5050505050815250509050600081600001515111610502576040517f08c379a00000000000000000000000000000000000000000000000000000000081526004016104f990610f06565b60405180910390fd5b806000015181602001518260400151935093509350509193909250565b600060205280600052604060002060009150905080600001805461054290610be9565b80601f016020809104026020016040519081016040528092919081815260200182805461056e90610be9565b80156105bb5780601f10610590576101008083540402835291602001916105bb565b820191906000526020600020905b81548152906001019060200180831161059e57829003601f168201915b5050505050908060010154908060020180546105d690610be9565b80601f016020809104026020016040519081016040528092919081815260200182805461060290610be9565b801561064f5780601f106106245761010080835404028352916020019161064f565b820191906000526020600020905b81548152906001019060200180831161063257829003601f168201915b5050505050905083565b60015481565b600081519050919050565b600082825260208201905092915050565b6000819050602082019050919050565b6000819050919050565b61069e8161068b565b82525050565b60006106b08383610695565b60208301905092915050565b6000602082019050919050565b60006106d48261065f565b6106de818561066a565b93506106e98361067b565b8060005b8381101561071a57815161070188826106a4565b975061070c836106bc565b9250506001810190506106ed565b5085935050505092915050565b6000602082019050818103600083015261074181846106c9565b905092915050565b6000604051905090565b600080fd5b600080fd5b600080fd5b600080fd5b6000601f19601f8301169050919050565b7f4e487b7100000000000000000000000000000000000000000000000000000000600052604160045260246000fd5b6107b082610767565b810181811067ffffffffffffffff821117156107cf576107ce610778565b5b80604052505050565b60006107e2610749565b90506107ee82826107a7565b919050565b600067ffffffffffffffff82111561080e5761080d610778565b5b61081782610767565b9050602081019050919050565b82818337600083830152505050565b6000610846610841846107f3565b6107d8565b90508281526020810184848401111561086257610861610762565b5b61086d848285610824565b509392505050565b600082601f83011261088a5761088961075d565b5b813561089a848260208601610833565b91505092915050565b6108ac8161068b565b81146108b757600080fd5b50565b6000813590506108c9816108a3565b92915050565b6000806000606084860312156108e8576108e7610753565b5b600084013567ffffffffffffffff81111561090657610905610758565b5b61091286828701610875565b9350506020610923868287016108ba565b925050604084013567ffffffffffffffff81111561094457610943610758565b5b61095086828701610875565b9150509250925092565b6000806000806080858703121561097457610973610753565b5b6000610982878288016108ba565b945050602085013567ffffffffffffffff8111156109a3576109a2610758565b5b6109af87828801610875565b93505060406109c0878288016108ba565b925050606085013567ffffffffffffffff8111156109e1576109e0610758565b5b6109ed87828801610875565b91505092959194509250565b600060208284031215610a0f57610a0e610753565b5b6000610a1d848285016108ba565b91505092915050565b600081519050919050565b600082825260208201905092915050565b60005b83811015610a60578082015181840152602081019050610a45565b60008484015250505050565b6000610a7782610a26565b610a818185610a31565b9350610a91818560208601610a42565b610a9a81610767565b840191505092915050565b610aae8161068b565b82525050565b60006060820190508181036000830152610ace8186610a6c565b9050610add6020830185610aa5565b8181036040830152610aef8184610a6c565b9050949350505050565b6000602082019050610b0e6000830184610aa5565b92915050565b7f4e487b7100000000000000000000000000000000000000000000000000000000600052603260045260246000fd5b7f4e487b7100000000000000000000000000000000000000000000000000000000600052601160045260246000fd5b6000610b7d8261068b565b91507fffffffffffffffffffffffffffffffffffffffffffffffffffffffffffffffff8203610baf57610bae610b43565b5b600182019050919050565b7f4e487b7100000000000000000000000000000000000000000000000000000000600052602260045260246000fd5b60006002820490506001821680610c0157607f821691505b602082108103610c1457610c13610bba565b5b50919050565b60008190508160005260206000209050919050565b60006020601f8301049050919050565b600082821b905092915050565b600060088302610c7c7fffffffffffffffffffffffffffffffffffffffffffffffffffffffffffffffff82610c3f565b610c868683610c3f565b95508019841693508086168417925050509392505050565b6000819050919050565b6000610cc3610cbe610cb98461068b565b610c9e565b61068b565b9050919050565b6000819050919050565b610cdd83610ca8565b610cf1610ce982610cca565b848454610c4c565b825550505050565b600090565b610d06610cf9565b610d11818484610cd4565b505050565b5b81811015610d3557610d2a600082610cfe565b600181019050610d17565b5050565b601f821115610d7a57610d4b81610c1a565b610d5484610c2f565b81016020851015610d63578190505b610d77610d6f85610c2f565b830182610d16565b50505b505050565b600082821c905092915050565b6000610d9d60001984600802610d7f565b1980831691505092915050565b6000610db68383610d8c565b9150826002028217905092915050565b610dcf82610a26565b67ffffffffffffffff811115610de857610de7610778565b5b610df28254610be9565b610dfd828285610d39565b600060209050601f831160018114610e305760008415610e1e578287015190505b610e288582610daa565b865550610e90565b601f198416610e3e86610c1a565b60005b82811015610e6657848901518255600182019150602085019450602081019050610e41565b86831015610e835784890151610e7f601f891682610d8c565b8355505b6001600288020188555050505b505050505050565b60006020820190508181036000830152610eb28184610a6c565b905092915050565b7f50617469656e74206e6f7420666f756e64000000000000000000000000000000600082015250565b6000610ef0601183610a31565b9150610efb82610eba565b602082019050919050565b60006020820190508181036000830152610f1f81610ee3565b905091905056fea2646970667358221220e7bc82703fa7c342dc2b1e282666c85f0d13a061480f5635f4743a5870ff5d6b64736f6c63430008100033",
  "immutableReferences": {},
  "source": "// SPDX-License-Identifier: MIT\npragma solidity ^0.8.0;\n\ncontract PatientRegistry {\n    struct Patient {\n        string name;\n        uint256 age;\n        string dentalInfo;\n    }\n\n    mapping(uint256 => Patient) public patients;\n    uint256 public patientCount;\n\n    event PatientRegistered(uint256 indexed patientId, string name);\n    event PatientInfoUpdated(uint256 indexed patientId, string  _name, uint256 _age, string  _dentalInfo);\n\n    function registerPatient(string memory _name, uint256 _age, string memory _dentalInfo) public {\n        // Increment the patientCount to get the next patient ID\n        uint256 patientId = patientCount;\n        patientCount++;\n\n        // Create a new Patient struct and store it in the mapping\n        patients[patientId] = Patient(_name, _age, _dentalInfo);\n        // Emit an event to log the registration\n        emit PatientRegistered(patientId, _name);\n    }\n\n    function getPatient(uint256 _patientId) public view returns (string memory, uint256, string memory) {\n        Patient memory patient = patients[_patientId];\n        require(bytes(patient.name).length > 0, \"Patient not found\");\n        return (patient.name, patient.age, patient.dentalInfo);\n    }\n\n    function getAllPatients() public view returns (uint256[] memory) {\n        uint256[] memory patientIds = new uint256[](patientCount);\n        for (uint256 i = 0; i < patientCount; i++) {\n            patientIds[i] = i;\n        }\n        return patientIds;\n    }\n\n    // Function to update patient information by authorized users\n    function updatePatientInfo(uint256 _patientId, string memory _name, uint256 _age, string memory _dentalInfo) public {\n    require(_patientId < patientCount, \"Patient not found\");\n    \n    // Only authorized users (dentists or medical staff) can update patient information.\n    // You would need to implement a proper access control mechanism for this check.\n    // For simplicity, we assume anyone can update the data in this example.\n\n    Patient storage patient = patients[_patientId];\n    patient.name = _name;\n    patient.age = _age;\n    patient.dentalInfo = _dentalInfo;\n\n    // Emit an event to log the update\n    emit PatientInfoUpdated(_patientId, _name, _age, _dentalInfo);\n    }\n\n}\n",
  "sourcePath": "/root/BCDentistry/contracts/PatientRegistery.sol",
  "compiler": {
    "name": "solc",
    "version": "0.8.16+commit.07a7930e.Emscripten.clang"
  },
  "schemaVersion": "3.4.9",
  "updatedAt": "2023-10-29T08:45:07.911Z",
  "networkType": "ethereum",
  "devdoc": {
    "kind": "dev",
    "methods": {},
    "version": 1
  },
  "userdoc": {
    "kind": "user",
    "methods": {},
    "version": 1
  }
}